:020000040800F2
:10000000C0E30020D5020008653C00082B3700083B
:10001000613C0008651E0008E1480008000000007F
:100020000000000000000000000000000F42000877
:10003000951E0008000000000D4200081142000853
:10004000EF020008EF020008EF020008EF020008CC
:10005000EF020008EF020008EF020008EF020008BC
:10006000EF020008EF020008EF020008EF020008AC
:10007000EF020008EF020008EF020008EF0200089C
:10008000EF020008EF020008EF020008EF0200088C
:10009000EF020008EF020008EF020008EF0200087C
:1000A000EF020008EF020008EF020008EF0200086C
:1000B000EF020008EF020008EF020008EF0200085C
:1000C000EF020008EF020008EF020008EF0200084C
:1000D000EF020008CD480008EF020008EF02000818
:1000E000EF020008EF020008EF020008EF0200082C
:1000F000EF020008EF020008EF020008EF0200081C
:10010000EF020008EF020008EF020008EF0200080B
:10011000EF020008EF020008E1420008EF020008C9
:10012000EF020008EF020008EF020008EF020008EB
:10013000EF020008EF020008EF020008EF020008DB
:10014000EF020008EF020008EF020008EF020008CB
:10015000EF020008EF020008EF020008EF020008BB
:10016000EF020008EF020008EF020008EF020008AB
:10017000EF020008EF020008EF0200080000000094
:10018000EF020008EF02000800F002F800F092F819
:100190000AA090E8000C82448344AAF10107DA45E2
:1001A00001D100F087F8AFF2090EBAE80F0013F0A2
:1001B000010F18BFFB1A43F001031847248D0000FC
:1001C000448D0000103A24BF78C878C1FAD852078D
:1001D00024BF30C830C144BF04680C6070470000C1
:1001E0000023002400250026103A28BF78C1FBD840
:1001F000520728BF30C148BF0B6070476E2900F01E
:100200008F82702900F0D983662907F0E58265297D
:1002100007F0E282672907F0DF82612907F0DE82BA
:1002200003681B0A28BF41F08001692900F03C8265
:10023000642900F03982752900F036826F2900F0B8
:100240006683782900F0A583E92900F00183E42979
:1002500000F0FE82F52900F0FB82EF2900F06383B5
:10026000F82900F0A4830368DB0928BF41F080016E
:10027000632901F0A780732901F0AC80E32901F024
:10028000B780F32901F0BC80002070471FB507F04C
:100290009EFA01F00BF904000020002106F050FE48
:1002A000401C60600020002106F034FEE0601FBDAD
:1002B00010B510BD01F0CCF81146FFF7E7FF04F0D0
:1002C0008DFE01F0A9F903B4FFF7F2FF03BC01F0C2
:1002D000ADF900000948804709480047FEE7FEE7FE
:1002E000FEE7FEE7FEE7FEE7FEE7FEE7FEE7FEE7E6
:1002F00004480549054A064B70470000CD420008F6
:1003000089010008C0DD0020C0E30020C0DF00201C
:10031000C0DF002053EA020C00F069802DE9F04BA9
:100320004FF00006002B1FBFB3FA83F503FA05F464
:1003300024FA05F65E4012BF1643B2FA82F502FABD
:1003400005F4C5F120051EBF22FA05FC44EA0C04A1
:10035000203556EA044C4FEA144418BF641C4FF091
:1003600000084FF00009904271EB030C39D30029CB
:1003700019BFB1FA81F701FA07F6B0FA80F700FA6F
:1003800007F6C7F120071EBF20FA07FC46EA0C0655
:100390002037B6FBF4FCA7EB0507103F07F01F0B57
:1003A000CBF120060CFA0BFB2CFA06F644BFB34641
:1003B0000026202FA4BF5E464FF0000B5BEA060C20
:1003C00008BF4FF0010B19EB0B09ABFB027C48EBAC
:1003D0000608C01B06FB02CC0BFB03CC71EB0C0127
:1003E000C1E70B46024641464846BDE8F08B13B5CF
:1003F0004FF000004FF00001AFF30080BDE81C405B
:10040000704700007CB51D4616460C00009001D0D8
:100410002044401E074B7B442A46694601903046E3
:1004200000F097F905461CB10020694600F0A4F9D8
:1004300028467CBD6903000010B5431C02E010F89B
:10044000011B71B18107FAD14FF0013202C88C1A39
:100450008C4314EAC211F9D0C01A0A0603D0C01E98
:1004600010BDC01A10BD0A0401D0801E10BD0902C3
:10047000FCD0401E10BD40EA010370B59B072ED191
:100480004FF00136042A2AD308C810C99D1B9D438A
:10049000121F15EAC61517D0D8B2E1B2401A50EAB9
:1004A000056110D198B2A1B2401A50EA05410AD1B3
:1004B00023F07F4024F07F41401A50EA052102D109
:1004C000180EA0EB146070BDA342DBD018BA21BA9D
:1004D000884201D9012070BD4FF0FF3070BD0AB9CC
:1004E000002070BD10F8013B11F8014B63B1A3422D
:1004F0000AD1521E08D010F8013B11F8014B1BB174
:10050000A34201D1521EEDD1181B70BD4FF0000265
:1005100000B5134694469646203922BFA0E80C50F9
:10052000A0E80C50B1F12001BFF4F7AF090728BFD4
:10053000A0E80C5048BF0CC05DF804EB890028BF50
:1005400040F8042B08BF704748BF20F8022B11F079
:10055000804F18BF00F8012B704700004FF0013C9E
:1005600050F8042B51F8043B9A4221D1A2EB0C0322
:10057000934313EACC1317D150F8042B51F8043BE2
:100580009A4215D1A2EB0C03934313EACC130BD17F
:1005900050F8042B51F8043B9A4209D1A2EB0C030A
:1005A000934313EACC13DBD04FF00000704700BF39
:1005B000D01A01BAB1FA81F101F0180122FA01F062
:1005C000CB40C1F12001DBB2C0B2C01A2CFA01F35A
:1005D000D11A914311EAC311E6D1704770477047B1
:1005E000704770B5044685690068C10601D530269C
:1005F00000E02026C00707D070BDD4E901213046B5
:100600009047206A401C20626D1EF6D570BD70B503
:10061000044685690078C00707D170BDD4E901217F
:1006200020209047206A401C20626D1EF6D570BDC8
:1006300009684A0501D540B27047C905FCD500B22A
:10064000704709684A0501D5C0B27047C905FCD595
:1006500080B2704770B50C460546012A05D028784F
:10066000800600D5EA69002302E0012305E05B1C57
:10067000934202D2E05C0028F9D1A869E618C01ABA
:10068000A861286A184428622846FFF7AAFF04E0F8
:10069000D5E9012114F8010B9047B442F8D328465C
:1006A000FFF7B5FF70BD00002DE9F04106460024BC
:1006B00010687529314616A510D0FFF7B9FF00283C
:1006C00002DA404213A507E031688A0701D512A576
:1006D00002E0490704D511A5012401E0FFF7B1FFAD
:1006E00000210A2206F1240709E0B0FBF2FCB0FB6E
:1006F000F2F302FB1C00303078541846491C0028E5
:10070000F3D123462A463046BDE8F04100F069BAED
:10071000000000002D0000002B0000002000000061
:1007200011680268006A530501D508700AE0D30514
:1007300001D5088006E0130603D5C217C1E90002FF
:1007400000E008600120704701694A1C02610878D6
:10075000704700B58FB0CDE9013100210591054901
:100760007944CDE903101146684600F031F90FB025
:1007700000BD0000E5FFFFFF0A6802F8010B0A60F8
:100780007047D1E900239A4202D2531C0B601070CB
:10079000704700002DE9FF5F15468A460446DFF8E2
:1007A000AC80F8440027D8E900103E46CDE900109F
:1007B00010E03AF816106A4602A800F025FE411C27
:1007C00007D02178890603D5E269391891420DD8FE
:1007D0000744761C2078800602D5E069B84205DD22
:1007E000AE42E6DB3AF816000028E2D1A069C01B51
:1007F000A0612046FFF7F5FED8E90010CDE9001012
:10080000002017E03AF818106A4602A800F0FCFD34
:10081000B0F1FF3F81460BD000250DF1080B05E03C
:10082000D4E901211BF8050090476D1C4D45F7D315
:1008300008F10100B0428046E4DB206A38442062BF
:100840002046FFF7E4FEBDE8FF9F0000927B00001A
:100850002DE9F0418046D21D22F007020025D2E9A1
:100860000002F52915A614D0011E72F1000106DA66
:100870000023D0EB030063EB020211A608E0D8F8D6
:1008800000108B0701D50FA602E0490701D50EA67F
:1008900001251146002408F1240704E000F05CF96A
:1008A00030323A55641C50EA0102F7D12B463246E9
:1008B00021464046BDE8F04100F093B90000000039
:1008C0002D0000002B0000002000000030B40021AB
:1008D00000F1240408E002F00705D208303542EAAE
:1008E0004372DB086554491C52EA0305F3D10468DE
:1008F000002310A2250707D5A40600D421B1C4699E
:1009000001230DA2641EC46130BC00F06AB910B5A9
:10091000044621461068FFF794FE02462046BDE8D3
:1009200010400023D2E7D21D22F00701D1E90023B5
:10093000CCE700000000000030000000F0B40D46DD
:100940000188090502D5214C7C4402E01F4C7C44FF
:100950000E34002100F1240608E002F00F0712090E
:10096000E75D42EA03721B097754491C52EA030708
:10097000F3D102780023120704D5702D06D009B1F7
:10098000022311342246F0BC00F02BB901231034AD
:10099000F8E770B504460D4621461068FFF751FE92
:1009A000024629462046BDE870400023C6E7D21D16
:1009B00022F00703D3E90023C0E70368126843F07D
:1009C000200303600823C3610023B7E7F479000024
:1009D0002DE9F05F894604464FF0000ADFF874B154
:1009E000FB44C0F820A02046E1688847002874D066
:1009F000252806D0D4E901219047206A401C2062B6
:100A0000F1E700265F462046E16888472028054632
:100A100007DB312D05D2781910F8200C08B10643F8
:100A2000F1E7B00701D526F00406C4F81CA00027A2
:100A3000C4F818A02A2D09D0284603F0F9FF38B3CE
:100A400004EB8708303DC8F8185019E059F8041B2A
:100A5000204604EB87029161E1688847012F054633
:100A600018D1E069002820DA26F020061DE0D8F829
:100A7000180000EB800005EB40003038C8F8180083
:100A80002046E1688847054603F0D2FF0028EED1F2
:100A9000012F0AD02E2D08D12046E16888477F1CFF
:100AA0000546022F46F02006C4DBA069002803DAC1
:100AB000404246F00106A061F00701D026F0100682
:100AC0006C2D0BD0682D09D04C2D39D06A2D35D026
:100AD000742D35D07A2D33D016E038E0E1682F46FA
:100AE00020468847B842054609D16C2F26D04FF4DE
:100AF0008060E168064320468847054604E06C2F85
:100B00001AD04FF4807006430DB3A5F141001928A7
:100B100002D8203546F400664A462946204626601B
:100B20004E46FFF76BFB80B101280BD0F61D26F077
:100B3000070000F1080956E74020E4E78020D8E7E5
:100B40000020D6E706F104094DE7284652E7206A5F
:100B5000BDE8F09F8479000030B5B0F10A024FEA99
:100B6000900E71F100034EEA817EB0EB0E0061EB56
:100B700091014FEA101E4EEA017E10EB0E0041EB90
:100B800011114FEA102E4EEA016E10EB0E0041EBF0
:100B900011214FEA104E4EEA014E10EB0E0041EBD0
:100BA0001141401841F100014FEAD00040EA417084
:100BB0004FEAD10110EB80054FEA810444EA9074BA
:100BC00044EB01046D1944EB0404521BA3414FF0A4
:100BD000000348BF0A3200D530BD401C41F100017E
:100BE00030BD2DE9F0470D4699469246044600F186
:100BF00024080168880604D5E06921F0100121600D
:100C000000E00120A84201DD471B00E00027A169A8
:100C10007A1902EB0900081AA0612078C00602D4F4
:100C20002046FFF7DEFC002608E0D4E901211AF88F
:100C300006009047206A401C761C20624E45F4DB7B
:100C40002078C0060AD52046FFF7CBFC06E0D4E9A1
:100C5000012130209047206A401C2062381EA7F1F5
:100C60000107F4DC07E0D4E9012118F805009047FA
:100C7000206A401C2062281EA5F10105F3DC2046F5
:100C8000FFF7C5FC2078000602D50220BDE8F087FA
:100C90000120FBE770472DE9FF4F0C461E464FF041
:100CA000FF378BB0D2E90001DDF860800A908A46F8
:100CB000C1F30A5505B93D46002108464FF0000032
:100CC000BAF1000F00F4400005DA00EB80004FF4A9
:100CD000400101EA50004FEA9059B9F1010F00DDDF
:100CE000B9460A9850EA4A000ED044F61050A5F2D0
:100CF000FF3545432F14B8F1000F1ED07542291E51
:100D00001EDDC9F100021CE0B8F1010F4FF0000038
:100D100001D0302103E0F24305E02154401CB042F1
:100D2000FBDB30460022002121540B99C1F80880DA
:100D3000C1E900200FB0BDE8F08FBD1B6D1CDEE7E0
:100D40004A4600DA694206A800F0F4FB06AB93E8D5
:100D5000070003AB83E8070050460A9900F0BAFC8D
:100D60008DE80700A0F500501F3800900398002D73
:100D70000ADD42F21F014A460844002303A90390FA
:100D8000684600F023FF09E0A0F500504A461F38EE
:100D9000002303A90390684600F02DFF8DE80700AB
:100DA0000004000C03D04FF0FF30410800E0104673
:100DB000B8F1000F03D00022009215461EE0751E08
:100DC00005D4FFF7C9FE303262556D1EF9D5B34622
:100DD0000122084302D000227F1C04E02078302842
:100DE00001D100227F1E002A099784D01DE0112D19
:100DF00007DAFFF7B1FE303262556D1C50EA01028E
:100E0000F5D1084302D00098C8B10EE00021681E59
:100E100005E0235C625C63542254401E491C8142FD
:100E2000F7DBAB46A81B401E0990002004F80B001E
:100E30000B98099AC0F80880C0E9002B7AE71126C0
:100E40004FF0000857E72DE9F04F88460446D21DC1
:100E500022F0070191B0D1E90001CDE90A0103F0C8
:100E600041FD02460B98C00F01D02D2007E02068FD
:100E7000810701D52B2002E0202101EAC000032ACE
:100E8000099001D0072A05DB03464146204600F0C1
:100E900011FB0BE12078800601D5E06900E0062017
:100EA000B8F1650F814606D0B8F1660F18D0B8F1D9
:100EB000670F70D131E00020B9F1110F009001DB14
:100EC000112301E009F101030AAA01A90CA8FFF707
:100ED000E2FEDDE90C70002609F10105834647E0DA
:100EE00001204B4600904FF000470AAA01A90CA828
:100EF000FFF7D1FEDDE90DB00C995D46002610B973
:100F000009F101000D18B9EB050003D4C0F1FF365B
:100F100009F10105A5EB09002BE0B9F1010F01DA98
:100F20004FF001090020B9F1110F0090484601DD92
:100F3000112300E003460AAA01A90CA8FFF7ABFEA3
:100F4000DDE90C704D4600268346207800070AD460
:100F5000AB4500DA5D4601A8012D04DD411911F809
:100F6000011C302907D04F4502DA17F1040F04DACB
:100F7000012082460FE06D1EEEE7002F02DCED1B24
:100F80003E4403E0781CA84200DD7D1CB81B00F144
:100F9000010A4FF000472078000703D4AA4501DB7F
:100FA0004FF0FF3A0021B7F1004F0DF143088DF8E3
:100FB000431024D002202B23002F01DA7F422D235F
:100FC0000A21021EA0F1010000DC5FB197FBF1FCD9
:100FD00097FBF1F201FB1C7C17460CF1300C08F872
:100FE00001CDEEE7A8F1010003702188090501D5C4
:100FF000452100E06521A0F1010800F8011C0998D5
:101000000FA9A1EB0807FF1D00B10120411901EB59
:10101000EA70A1693844081A401EA0612078C00611
:1010200002D42046FFF7DDFA099828B1D4E901215E
:101030009047206A401C20622078C00622D52046B6
:10104000FFF7CFFA1EE0002E04DBB34502DD01A856
:10105000805D00E03020D4E901219047206A401CE7
:101060002062761CAAF101005FEA000A0AD100F0B2
:101070001DFAC0680168405CD4E901219047206AEC
:10108000401C2062281EA5F10105DCDC07E0D4E944
:10109000012118F8010B9047206A401C2062381E7D
:1010A000A7F10107F3DC2046FFF7B1FA032011B0E6
:1010B00041E600002DE9F04F04460D46D21D22F016
:1010C000070089B0D0E900974846394603F00AFC8A
:1010D0000246F80F01D02D2307E02068810701D5D3
:1010E0002B2302E0202101EAC0038DF820300BB150
:1010F000012000E00020032A824601D0072A04DBF9
:101100002946204600F0D6F93FE12078800601D438
:101110000D2500E0E569C7F30A560D2D49DA0021D7
:101120004FEA175B08464FF00000002F00F4400024
:1011300007DA00EB80004FF4400100EBD07001EAC9
:1011400060008115012901DD4FF0FF3100224FEAD7
:10115000850CBCF1180F06D31346ACF118004FF004
:101160008052C24003E04FF4801323FA0CF30CF1D9
:101170000C0CBCF1200F04D3ACF1200C09FA0CF0DC
:1011800001E007FA0CF000294FF0004801DD18B922
:101190000FE00ED140450CD319EB02095F4121B994
:1011A000404502D19F4329EA0209BBEB175F00D0FB
:1011B000761C2088000502D57B48784402E07A48F6
:1011C0007844193808AA302302F80A30037C0AF15F
:1011D0000101002E0AF1020A53546A4602DC4FF064
:1011E000300101E04FF031014FF001088DF800109F
:1011F00002D0A6F2FF3603E059EA470100D06B4E59
:10120000002D02DC2178090704D54FF002082E21B9
:101210008DF80110C44600210BE0C7F303433F01E2
:10122000C35C491C6D1E02F80830052908F101084D
:1012300001DA002DF1DC00210CE000EB1973491CF0
:101240001B786D1E082902F808304FEA091908F1C9
:10125000010801DA002DF0DC21688B0602D516E0CA
:10126000A8F10108E04505DD02EB080313F8013C95
:10127000302BF5D0B8F1000F09DD02EB080313F8AD
:10128000013C2E2B03D1090701D4A8F10108002D40
:1012900005DD3E2102F808106D1E08F10108407CB2
:1012A000002E02F8080008F1010804DA2D20764229
:1012B00002F8080002E02B2002F808000A214FF48F
:1012C0007A70864208F101080BDB96FBF0F33033AD
:1012D00002F8083096FBF0F308F1010800FB1366F2
:1012E00001E0642E0CDB642096FBF0F3303302F84F
:1012F000083096FBF0F308F1010800FB136601E0EB
:101300000A2E06DB96FBF1F0303002F8080008F1F7
:10131000010896FBF1F001FB1060303002F8080084
:10132000A16908F1010808EB050202EB0A00081A9E
:10133000A0612078C00602D42046FFF752F9216A46
:1013400008AE01EB0A00206204E0D4E9012116F89E
:10135000010B9047BAF1010AF7D22078C00602D5F6
:101360002046FFF73EF96E4609E016F8010B3E28CD
:101370000FD0D4E901219047206A401C2062B8F1C7
:101380000108F2D22046FFF742F909B00320BDE878
:10139000F08F206A2844206203E0D4E90121302044
:1013A00090476D1EEBD3F8E7CE71000002FCFFFF03
:1013B00010B5436913B1AFF3008001E0FFF74AF9BC
:1013C000012010BD127800F124010A7000224A7039
:1013D0000122EDE711684FF0FF32E9E710B54369EC
:1013E00013B1AFF3008001E0FFF7D4F9012010BD85
:1013F000128800F1240182840022C2840122EDE7D8
:1014000011684FF0FF32E9E770B516460C46054605
:1014100000F044F8036893F80101012806D0FF2C7E
:101420000FD8185D68B101202C7070BDD3F807018A
:101430003246214603F2071303442846BDE87040B4
:1014400018474FF0FF3070BD0048704760DD002046
:101450007546FFF7F9FFAE4605006946534620F092
:101460000700854618B020B5FEF742FFBDE82040D2
:101470004FF000064FF000074FF000084FF0000B50
:1014800021F00701AC46ACE8C009ACE8C009ACE803
:10149000C009ACE8C0098D467047000010B500F0E7
:1014A00005F8001D10BD00BF995A000000487047A4
:1014B00080DD00202DE9F0411F4604460326016827
:1014C000072A01F4006004DB08B116A505E016A5A3
:1014D00003E008B115A500E015A521F0100020607B
:1014E000A069C01EA0610FB1401EA0612046FFF799
:1014F00078F84FB1D4E9012138469047206A401C62
:101500002062C01C206206E0206AFAE7D4E90121CB
:1015100015F8010B9047761EF8D22046FFF777F8B2
:10152000BDE8F0814E414E006E616E00494E4600AE
:10153000696E66002DE9F047814616468AB0354847
:1015400078440DC88DE80D0032487844801C03AC07
:101550000DC884E80D0041F69B300844372190FB0C
:10156000F1F290FBF1F5A5F1800501FB12041B3CA3
:1015700002D56442012000E00020DFF898A08046F8
:101580000027FA44AAF1BE0A0EE0E0070AD032466C
:10159000684607EB470101230AEB810100F02BFBB2
:1015A0008DE8070064107F1C002CEED1194F7F449A
:1015B000AE3F19E0E80715D007EB04100DF1180A4B
:1015C00090E80E008AE80E00C068F04201D1981938
:1015D00008903246012306A903A800F00CFB03ABD8
:1015E00083E807006D10641C002DE3D14FF0010368
:1015F00032466946B8F1000F03A802D000F0E6FABF
:1016000001E000F0F8FAC9E90001C9F808200AB0C1
:10161000BDE8F087D86E000010B50446AFF3008037
:101620002046BDE81040FEF74EBE000001491820DC
:10163000ABBEFEE726000200704700009FED221AB5
:101640009FED222A20EE010AB5EE001A30EE010AC3
:10165000BDEEC01A11EE100AB5EE400AF1EE10FA16
:10166000B8BF013801EE100AB8EEC11A30EE410AD7
:1016700020EE020ABDEEC01A9FED152A11EE100AE7
:10168000002130EE021AB1EB502F48F2DC611CBF92
:101690000020B0EE410AC0F6000101EE100A01EB95
:1016A0008001B8EE411A30EE410A91ED001A91ED39
:1016B000012AB7EE003A33EE403A23EE011A20EE4B
:1016C000020A31EE000A704783F9223E000000440E
:1016D000000000C45FEA400C08BF91F0000F4FEA21
:1016E0008C234FEAC12243EA51514FEA1C5018BFE4
:1016F00000F5F0404FEA300018BF41F000415FEACA
:101700006C5C00F02980BCF1FF3F08BF40F08040D6
:101710007047130C06BF12044FF0100C4FF0000C72
:10172000130E04BF12020CF1080C130F04BF1201B8
:101730000CF1040C930F04BF92000CF1020CD30FB8
:1017400004BF52000CF1010C11464FF00002A0F151
:101750001F00A0EB0C00704711F0004F08BF70474E
:1017600031F000413FF4D5AF0B0C06BF09044FF038
:10177000100C4FF0000C0B0E04BF09020CF1080C0A
:101780000B0F04BF09010CF1040C8B0F04BF89007F
:101790000CF1020CCB0F04BF49000CF1010CCCF191
:1017A0002003A0EB0C0022FA03F302FA0CF241EA48
:1017B000030100F10100704720F07F4C80EA030034
:1017C00023F07F47ACEB070303F57C5300F00040A8
:1017D00003F1FF032DE980494FEA154B09B44FEAA5
:1017E000144325EA0B4E24EA03480FF2042606EBC5
:1017F000132749083E785FEA320203FB0667C7F504
:10180000000707FB06F64FEA54374FEAD64606F1C3
:10181000020607FB066CCCF1005C4FEA1C472CEA81
:10182000074C07FB06F40CFB06F504EB15464FEAE4
:10183000961634BF00204FF000404FEAD13706FB28
:1018400007FC4FEA1C4C0CFB0BF7D21B03FB0CF7FD
:1018500061EB07010CFB0EF7B0EB074072EB174290
:101860000CFB08F734BFA2EB0742B2EB074261EB77
:1018700017414FEA0C444FEA910706FB07FC4FEA79
:101880001C4C0CFB0BF7B0EBC74072EB573203FB61
:101890000CF734BFA2EBC742B2EBC74261EB573142
:1018A0000CFB0EF7B0EBC70072EB57720CFB08F79E
:1018B00034BFA2EBC702B2EBC70261EB5771039FC3
:1018C0004FEA816141EA921104EBCC044FEAD1372F
:1018D0004FEA826206FB07FC42EA90124FEA806000
:1018E0004FEA1C4C0CFB0BF7D21B03FB0CF761EB14
:1018F00007010CFB0EF7B0EB074072EB17420CFB35
:1019000008F734BFA2EB0742B2EB074261EB174185
:101910004FEA8C554FEA910704EB9C2406FB07FC29
:101920004FEA1C4C0CFB0BF7B0EBC74072EB573285
:1019300003FB0CF734BFA2EBC742B2EBC74261EB2B
:1019400057310CFB0EF7B0EBC70072EB57720CFB74
:1019500008F734BFA2EBC702B2EBC70261EB5771C5
:1019600015EB4C254FEA816141EA92114FEA826200
:101970004FEAD13742EA901206FB07FC44F100041B
:101980004FEA80604FEA1C4C0CFB0BF7D21B03FBA9
:101990000CF761EB07010CFB0EF7B0EB074072EBA5
:1019A00017420CFB08F734BFA2EB0742B2EB074229
:1019B00061EB174115EB1C154FEA813141EA924169
:1019C0004FEA823242EA90424FEA80304FEA0C7688
:1019D00044F1000448EA03434EEA0B484FF0000E7E
:1019E000B2EB080C71EB030724BF624639464EEB9D
:1019F0000E0E4FF0000B0018524149414BEB0B0B00
:101A0000B2EB080C71EB03077BF1000B24BF6246BD
:101A100039464EEB0E0E4FF0000B00185241494173
:101A20004BEB0B0BB2EB080C71EB03077BF1000BDC
:101A300024BF624639464EEB0E0E51EA020718BF2C
:101A400046F0010616EB0E7655F1000254F1000146
:101A500003D5BDE88901BDE80088BDE88901BDE87E
:101A60000048B619524141EB0101A3F1010370474F
:101A700080807F7E7D7C7B7A7978777676757473CB
:101A8000727171706F6E6E6D6C6C6B6A6A6968688A
:101A9000676666656464636362616160605F5F5E20
:101AA0005E5D5D5C5C5B5B5A5A5959585857575696
:101AB00056555555545453535252525151505050FB
:101AC0004F4F4F4E4E4D4D4D4C4C4C4B4B4B4A4A4D
:101AD0004A49494948484847474747464646454591
:101AE00045444444444343434342424242414141CA
:101AF000002B9C4630D477002BD01CB54FEA37071B
:101B000003B44FF010004FF01001BAF1000F06D0EF
:101B1000BCF1000FDCBF40F0080040F008014FF0BE
:101B200000000FBCBDE810400BF1010BBBF1010F31
:101B300008BF5FEA170722BF12F1010211F101018C
:101B40004FF0004143F1000300F0004043EA000081
:101B50007047F9D35708D0E746EA064613F1400F1D
:101B60004FEA16461FDD13F1200FDFBF16430A466A
:101B7000002120335B42BED0C3F1200746EA06466F
:101B800002FA07F74FEA164646EA0706C3F12007AE
:101B900022FA03F201FA07F721FA03F14FF00003EA
:101BA00042EA0702A7E746EA020646EA06464FEA85
:101BB000164646EA0106BCBF46EA0646360C4FF01A
:101BC00000034FF000024FF0000194E72DE9804C34
:101BD0009A46934670B491E8380007C831EA400C41
:101BE00048BF34EA430C03D5FFF7E6FDFFF780FF5B
:101BF000F0BCBDE8008C2DE9804C9A46934670B449
:101C000091E8380007C810F0804F08BF13F0804FEC
:101C100003D100F005F8FFF76BFFF0BCBDE8008CC6
:101C200020F07F4780EA030023F07F4C07EB0C0392
:101C3000A3F57C5300F00040A3F1FE0392F0000FE7
:101C400000F0B38095F0000F00F077802DE9014996
:101C50004FEA11404FEA144621EA004800FB06FC17
:101C600024EA064708FB06F607FB08F800FB07F71F
:101C700018EB06484CEB164C4FEA124B18EB074892
:101C80004FEA15464CEB174022EA0B4E0BFB06FCC5
:101C900025EA06470EFB06F607FB0EFE0BFB07F7D1
:101CA0001EEB064E4CEB164C4FF000061EEB074E9B
:101CB0004CEB174B18EB0B0840F1000018EB0E0B28
:101CC00058EB000840F100008F1A4FF000013CBFB4
:101CD000C943661B14BFB5EB040C00213CBFC943CC
:101CE000F61B4FEA17444EEA8E0E27EA04454FEAE8
:101CF0001C4704FB07622CEA074C05FB07F70CFBAB
:101D000005F604FB0CFC16EB074642EB174216EBFC
:101D10000C4642EB1C421BEB060658EB020241410B
:101D200046EA9E0601D5BDE80189B619524141EB4C
:101D30000101A3F10103BDE801894FEA14454FEA0F
:101D4000114724EA054621EA074C05FB07F406FB88
:101D500007F70CFB06F105FB0CFC11EB074144EB0C
:101D600017444FEA124711EB0C4144EB1C4422EAA2
:101D7000074C05FB07F206FB07F70CFB06F605FB15
:101D80000CFC16EB074642EB174216EB0C4642EBF7
:101D90001C456A1854F1000148BF7047B6195241FA
:101DA00041EB0101A3F10103704795F0000F37D01B
:101DB0004FEA11424FEA144721EA024624EA074C4F
:101DC00002FB07F106FB07F70CFB06F402FB0CFC19
:101DD00014EB074441EB17414FEA154714EB0C4451
:101DE00041EB1C4125EA074C02FB07F506FB07F710
:101DF0000CFB06F602FB0CFC16EB074645EB174501
:101E000016EB0C4645EB1C42121951F1000148BF7C
:101E10007047B619524141EB0101A3F1010370472C
:101E20004FEA14454FEA114724EA054621EA074CD8
:101E300005FB07F106FB07F70CFB06F24FF0000667
:101E400005FB0CFC12EB074241EB174112EB0C4275
:101E500051EB1C4148BF7047921841EB0101A3F1BF
:101E60000103704700BFFEE710B50748006800682F
:101E7000C0F3401038B10448006840680349087056
:101E8000034802F05DFE10BD580100202000002034
:101E9000E8060020704772B600BFFEE770B5044642
:101EA000A56D00F08BF9064694F83500022808D09D
:101EB0008020606500BF002084F8340000BF01204E
:101EC00070BD2068006820F0160021680860206856
:101ED000406920F0800021684861206C08B9A06C3E
:101EE00028B12068006820F0080021680860206898
:101EF000006820F001002168086010E000F05EF941
:101F0000801B05280BD920206065032084F835004C
:101F100000BF002084F8340000BF0320D0E7206811
:101F2000006800F001000028E8D194F85C103F2020
:101F30008840A860012084F8350000BF002084F8A4
:101F4000340000BF00BFBBE7014691F8350002280E
:101F500003D08020486501207047052081F83500B6
:101F60000868006820F001000A6810600020F3E7AC
:101F700070B5044600F022F906462546681C10B1EB
:101F800004480078054400BF00F018F9801BA842FF
:101F9000FAD370BD2C000020F8B502460B46002590
:101FA000002400200021D6E0012606FA01F51E6873
:101FB00006EA0504AC4274D11E7906F00306012E30
:101FC00004D01E7906F00306022E13D190684F004C
:101FD0000326BE40B0434F00DE68BE4030439060F1
:101FE000506801268E40B0431E79C6F300168E401D
:101FF000304350601E7906F00306032E09D0D068E6
:102000004F000326BE40B0434F009E68BE403043A1
:10201000D0601E7906F00306022E13D1CF0802F11C
:10202000200656F827004E07F70E0F26BE40B04395
:102030004F07FF0E1E69BE403043CF0802F1200655
:1020400046F8270010684F000326BE40B0431E79B3
:1020500006F003064F00BE40304310605E6806F491
:102060004036002E76D000BF002600963C4E3668E3
:1020700046F480463A4F3E603E46366806F4804657
:10208000009600BF00BF374E8F0856F827008E0716
:10209000370F0F26BE40B043334EB24202D1002666
:1020A00024E057E0314EB24201D101261EE0304E0D
:1020B000B24201D1022619E02E4EB24201D10326CE
:1020C00014E02D4EB24201D104260FE02B4EB24255
:1020D00001D105260AE02A4EB24201D1062605E0CA
:1020E000284EB24201D1072600E008268F073F0F95
:1020F000BE4030431B4E8F0846F82700224E306802
:10210000A0435E6806F4801606B120431E4E306080
:10211000361D3068A0435E6806F4001606B1204301
:10212000194E361D3060184E361F3068A0435E6869
:1021300006F4003606B12043134E361F3060361FBA
:102140003068A0435E6806F4803606B120430E4E28
:10215000083E3060491C1029FFF426AFF8BD00008E
:1021600044380240083801400000024000040240A8
:1021700000080240000C024000100240001402401F
:1021800000180240001C0240083C0140024613694E
:102190000B400BB1012000E00020704710B54269F0
:1021A00021EA020302EA010443EA0443836110BD09
:1021B0000AB1816101E00B04836170470148006846
:1021C000704700002400002070B504460CB90120BF
:1021D00070BD94F83D0028B9002084F83C002046EA
:1021E00000F08CF9242084F83D002068006820F07D
:1021F0000100216808602068006840F40040216800
:1022000008602068006820F400402168086000F041
:102210005FFB05465C496068884206D85B4885429A
:1022200001D2012007E0002005E05948854201D293
:10223000012000E00020012800D1C9E75548B5FB86
:10224000F0F62068406820F03F0030432168486085
:102250004D496068884201D8701C07E04FF49670C1
:1022600070434FF47A71B0FBF1F0401C2168096AA9
:1022700021F03F01084321680862434960688842B1
:1022800014D8681E61684900B0FBF1F0401CC0F32F
:102290000B00042801D204203DE0681E616849005B
:1022A000B0FBF1F0401CC0F30B0034E0A06838B97B
:1022B000681E616801EB4101B0FBF1F0401C0AE0CF
:1022C000681E616801EBC10202EB0111B0FBF1F085
:1022D000401C40F48040C0F30B0008B901201AE014
:1022E000A06848B9681E616801EB4101B0FBF1F0DC
:1022F000401CC0F30B000CE0681E616801EBC102DA
:1023000002EB0111B0FBF1F0401CC0F30B0040F4F4
:10231000804040F400402168C9694CF6FF72914347
:1023200008432168C861D4E90701084321680968A6
:1023300021F0C001084321680860D4E90310084374
:102340002168896848F2FF32914308432168886018
:10235000D4E9050108432168C96821F0FF01084359
:102360002168C8602068006840F0010021680860AA
:1023700000202064202084F83D000020206384F8A1
:102380003E0000BF24E70000A086010080841E00FC
:1023900000093D0040420F002DE9FC5F04460F4656
:1023A00090469946DDE90CAB0E9EFFF707FF054608
:1023B00094F83D0020287DD1192301224D49204663
:1023C000009501F076FA10B10220BDE8FC9F00BF35
:1023D00094F83C00012801D10220F6E7012084F89E
:1023E0003C0000BF2068006800F0010028B92068A8
:1023F000006840F00100216808602068006820F44F
:10240000006021680860212084F83D00402084F8A5
:102410003E0000202064C4F824A0A4F82AB0608DF7
:1024200020853548E0624B46424639462046CDE994
:10243000006501F09BF908B10120C6E731E02A46AA
:102440003146204601F011FB50B1206C042805D123
:102450002068006840F40070216808600120B4E73B
:10246000606A007821680861606A401C6062208DA3
:10247000401E2085608D401E608520684069C0F345
:10248000800070B1208D60B1606A007821680861B9
:10249000606A401C6062208D401E2085608D401E59
:1024A0006085208D0028CAD12A463146204601F099
:1024B000CDF900E01CE050B1206C042805D1206863
:1024C000006840F400702168086001207DE7206802
:1024D000006840F4007021680860202084F83D0006
:1024E000002084F83E0000BF84F83C0000BF6CE789
:1024F00002206AE7020010000000FFFF10B586B05E
:102500000446142101A8FEF701F81B4920688842FF
:102510002FD100BF002000901848006840F0020052
:10252000164908600846006800F00200009000BFED
:1025300000BFC020019012200290002003900320D1
:1025400004900420059001A90D48FFF725FD00BF68
:102550000020009009481030006840F4001007493E
:10256000103108600846006800F40010009000BFB9
:1025700000BF06B010BD00000054004030380240DB
:1025800000040240034800680349097808440149EF
:1025900008607047240000202C00002010B50D4872
:1025A000006840F400700B4908600846006840F479
:1025B000806008600846006840F48070086003206E
:1025C00000F0AAF8032000F007F800F02BF8002034
:1025D00010BD0000003C024070B504460E48007873
:1025E0004FF47A71B1FBF0F00C490968B1FBF0F5DA
:1025F000284600F033FC08B1012070BD102C07D232
:1026000000222146501E00F049F80548046001E010
:102610000120F2E70020F0E72C000020300000202D
:102620002800002008B500BF002000901048006876
:1026300040F480400E4908600846006800F480407D
:10264000009000BF00BF00BF00200090081F00687E
:1026500040F08050091F08600846006800F0805074
:10266000009000BF00BF052000F056F808BD000034
:10267000443802400146084600280DDB00BF00BF79
:1026800000F01F0301229A4043099B0003F1E0235D
:10269000C3F8002100BF00BF00BF70472DE9F05F05
:1026A00080460D461646002702F034F907463946A3
:1026B0002A46334601F00700C0F1070ABAF1040FB9
:1026C00002D94FF0040A01E0C0F1070AD14600F137
:1026D000040ABAF1070F02D24FF0000A01E0A0F19C
:1026E000030AD4464FF0010A0AFA09FAAAF1010ACC
:1026F0000AEA020A0AFA0CFA4FF0010B0BFA0CFB79
:10270000ABF1010B0BEA030B4AEA0B0421464046EE
:1027100002F008F9BDE8F09F00BF00F00702064B89
:1027200019684FF6FF031940044B0B4343EA02219B
:10273000014B196000BF70470CED00E00000FA0586
:1027400070B504460D460CB9012070BD58480068AC
:1027500000F00700A84209D255490D7008460068EC
:1027600000F00700A84201D00120EEE7207800F039
:10277000020002281DD1207800F00400042805D1B1
:102780004C48006840F4E0504A490860207800F066
:102790000800082805D14748006840F460404549D2
:1027A00008604448006820F0F000A16808434149EF
:1027B0000860207800F00100A8B36068012807D104
:1027C0003C4808380068C0F34040B8B90120BCE775
:1027D0006068022802D06068032807D135480838AD
:1027E0000068C0F3406048B90120AEE731480838BE
:1027F0000068C0F3400008B90120A6E72D48006832
:1028000020F00300616808432A490860FFF7D6FCFE
:10281000064609E0FFF7D2FC801B41F2883188426E
:1028200002D9032091E707E02248006800F00C007D
:102830006168B0EB810FEDD11D48006800F0070022
:10284000A84209D91A490D700846006800F007002F
:10285000A84201D0012078E7207800F00400042885
:1028600007D11448006820F4E050E168084311499A
:102870000860207800F00800082808D10D4800689A
:1028800020F46040216940EAC1000A49086000F074
:102890003FF808490968C1F30311074A515CC84071
:1028A0000649086006480068FFF796FE00204CE7DE
:1028B000003C024008380240E07700083000002069
:1028C0002800002001480068704700003000002008
:1028D00000B5FFF7F7FF04490968C1F38221034AF5
:1028E000515CC84000BD000008380240F077000885
:1028F00000B5FFF7E7FF04490968C1F34231034A15
:10290000515CC84000BD000008380240F077000864
:102910002DE9F047002400250026A146254800683F
:1029200000F00C0020B1042805D008283AD105E0B9
:10293000DFF8849039E0DFF8849036E01D48001F0E
:10294000006800F03F041B48001F006800F480008E
:1029500078B11A481749091F0968C1F38811A0FB0B
:1029600001700146224600233846FDF7D3FC054698
:102970000EE011480F49091F0968C1F38811A0FB37
:1029800001700146224600233846FDF7C3FC054688
:102990000848001F0068C0F30140401C4600B5FB1A
:1029A000F6F902E0DFF8109000BF00BF4846BDE82E
:1029B000F0870000083802400024F40040787D01D0
:1029C000F8B504460CB90120F8BD207800F00100EC
:1029D000002874D0F948006800F00C0004280DD0DD
:1029E000F648006800F00C00082813D1F348001FD7
:1029F000006800F48000B0F5800F0BD1EF48083874
:102A00000068C0F34040002859D06068002856D1C3
:102A10000120D9E700BF6068B0F5803F08D1E748E2
:102A20000838006840F48030E449083908601EE046
:102A30006068B0F5A02F0DD1E0480838006840F478
:102A40008020DE49083908600846006840F480307C
:102A500008600CE0D9480838006820F48030D74975
:102A6000083908600846006820F48020086000BF2C
:102A7000606890B1FFF7A2FB054606E0FFF79EFBFA
:102A8000401B642801D903209EE7CC480838006821
:102A9000C0F340400028F1D011E0FFF78FFB05465E
:102AA00006E0FFF78BFB401B642801D903208BE76E
:102AB000C24808380068C0F340400028F1D12078AF
:102AC00000F0020002285FD1BC48006800F00C0052
:102AD00058B1BA48006800F00C0008281CD1B7486B
:102AE000001F006800F48000B0B9B44808380068DE
:102AF000C0F3400020B1E068012801D0012063E765
:102B0000AE480838006820F0F800216940EAC100AA
:102B1000AA490839086037E0E06800B30120A849F5
:102B20000860FFF74BFB054606E0FFF747FB401B3D
:102B3000022801D9032047E7A04808380068C0F3FD
:102B400040000028F1D09D480838006820F0F800C7
:102B5000216940EAC10099490839086014E0002061
:102B600097490860FFF72AFB054606E0FFF726FBBA
:102B7000401B022801D9032026E790480838006846
:102B8000C0F340000028F1D1207800F008000828A8
:102B90002CD16069A8B101208A490860FFF70EFBBB
:102BA000054606E0FFF70AFB401B022801D9032077
:102BB0000AE782486C300068C0F340000028F1D07A
:102BC00014E000207F490860FFF7F8FA054606E0A8
:102BD000FFF7F4FA401B022801D90320F4E67748F6
:102BE0006C300068C0F340000028F1D1207800F07C
:102BF0000400042870D1002770483830006800F0C5
:102C0000805090B900BF002000906C4838300068B8
:102C100040F080506949383108600846006800F08B
:102C20008050009000BF00BF01276748006800F493
:102C30008070B0B96448006840F4807062490860F0
:102C4000FFF7BCFA054606E0FFF7B8FA401B02287A
:102C500001D90320B8E65C48006800F480700028C1
:102C6000F2D000BFA068012808D15448683000683D
:102C700040F001005149683108601DE0A068052856
:102C80000DD14E486830006840F004004B4968316F
:102C900008600846006840F0010008600CE0474802
:102CA0006830006820F00100444968310860084637
:102CB000006820F00400086000BFA068A8B1FFF71A
:102CC0007DFA054609E0FFF779FA401B41F28831A9
:102CD000884202D9032077E626E038486830006849
:102CE000C0F340000028EED013E0FFF767FA054676
:102CF00008E0FFF763FA401B41F28831884201D9AE
:102D0000032061E62D4868300068C0F340000028C9
:102D1000EFD1012F07D129483830006820F08050CA
:102D200026493831086000BFA069002845D02348F3
:102D3000006800F00C0008285DD0A069022845D189
:102D400000201F490866FFF739FA054606E0FFF73D
:102D500035FA401B022801D9032035E61748083808
:102D60000068C0F340600028F1D1D4E907010843AE
:102D7000616A40EA81110122A06AC2EB500041EA77
:102D800000412C20005D41EA00600C49091F0860E9
:102D900001200B490866FFF711FA054606E0FFF728
:102DA0000DFA401B022801D903200DE6034808381C
:102DB0000068C0F340600028F1D049E008380240C4
:102DC00000004742800E4742007000400020214929
:102DD0000866FFF7F3F9054606E0FFF7EFF9401B39
:102DE000022801D90320EFE51B480068C0F34060CA
:102DF0000028F2D12CE0A069012800D1E4E51648B2
:102E0000001D0668A069012820D006F48001E06951
:102E100081421BD106F03F01206A814216D147F65C
:102E2000C0703040616AB0EB811F0FD106F44031B1
:102E30000122A06AC2EB5000B1EB004F06D106F0B0
:102E400070612C20005DB1EB006F01D00120BBE56B
:102E50000020B9E5000047420038024070B5044642
:102E60002546681EB0F1807F01D301200FE0681E67
:102E70004FF0E02148610F214FF0FF3001F052FD8B
:102E800000204FF0E021886107200861002070BD1C
:102E90007047704730B502460B4600BF92F83C00C1
:102EA000012801D1022030BD012082F83C0000BF82
:102EB000022082F83D00106844681068816824F0A0
:102EC00070041868044310684460184D1068A842E4
:102ED0001BD01068B0F1804F17D0154D1068A84274
:102EE00013D0144D1068A8420FD0134D1068A8429B
:102EF0000BD0124D1068A84207D0114D1068A8429F
:102F000003D0104D1068A84205D121F08001586807
:102F1000014310688160012082F83D0000BF00205D
:102F200082F83C0000BF00BFBDE700000000014088
:102F30000004004000080040000C00400004014074
:102F4000004001400018004010B504460CB90120B3
:102F500010BD94F83D0028B9002084F83C002046BC
:102F600000F026F8022084F83D00211D206801F0C1
:102F7000BFF9012084F8460000BF84F83E0001211B
:102F80003F200155402001554120015500BF00BFA1
:102F9000012084F84200432001554420015545207A
:102FA000015500BF012084F83D000020D0E700005B
:102FB00038B504460E492068884217D100BF00206A
:102FC00000900C48006840F010000A49086008466C
:102FD000006800F01000009000BF00BF0222114600
:102FE0003620FFF75BFB3620FFF744FB38BD0000BF
:102FF0000010004040380240014691F83D00012891
:1030000001D001207047022081F83D000868C068A7
:1030100040F001000B68D8601A4B086898421BD03A
:103020000868B0F1804F17D0174B0868984213D04A
:10303000164B086898420FD0154B086898420BD081
:10304000144B0868984207D0134B0868984203D085
:10305000124B086898420CD10868806800F007029B
:10306000062A0CD00868006840F001000B68186060
:1030700005E00868006840F001000B681860002057
:10308000C0E70000000001400004004000080040CC
:10309000000C0040000401400040014000180040C6
:1030A000704770B504462068C5682068066906F058
:1030B0000200022819D105F00200022815D1401F94
:1030C00021680861012020772068806900F00300F2
:1030D00018B12046FFF7E4FF05E0204600F097F81E
:1030E000204600F095F80020207706F00400042820
:1030F00019D105F00400042815D1C04321680861E6
:10310000022020772068806900F4407018B12046C2
:10311000FFF7C6FF05E0204600F079F8204600F0F2
:1031200077F80020207706F00800082819D105F06C
:103130000800082815D1C0432168086104202077C1
:103140002068C06900F0030018B12046FFF7A8FF0F
:1031500005E0204600F05BF8204600F059F800201A
:10316000207706F01000102819D105F01000102863
:1031700015D1C04321680861082020772068C06904
:1031800000F4407018B12046FFF78AFF05E02046A2
:1031900000F03DF8204600F03BF80020207706F0D4
:1031A000010048B105F0010030B16FF00100216865
:1031B0000861204600F02EF806F08000802809D132
:1031C00005F08000802805D1C043216808612046B1
:1031D000FFF75EFE06F04000402809D105F04000F0
:1031E000402805D1C04321680861204600F026F838
:1031F00006F02000202809D105F02000202805D164
:10320000C043216808612046FFF743FE70BD704748
:103210007047000010B5074A0168914208D106497D
:103220000B6849685B1C41F10001034A136051605F
:1032300010BD0000001000401800002070477047CB
:10324000704700002DE9F84F0446206805682068A3
:10325000C668206847694FF00009CA4605F00F09A3
:10326000B9F1000F0AD105F0200038B106F02000B6
:1032700020B1204601F000F9BDE8F88FB9F1000F48
:103280007CD007F0010018B906F49070002875D0C2
:1032900005F0010030B106F4807018B1606C40F0A8
:1032A0000100606405F0040030B107F0010018B1BE
:1032B000606C40F00200606405F0020030B107F07D
:1032C000010018B1606C40F00400606405F0080073
:1032D00048B106F0200010B907F0010018B1606C89
:1032E00040F008006064606C002846D005F02000C3
:1032F00028B106F0200010B1204601F0BDF820688A
:103300004069C0F3801A606C00F0080010B9BAF18F
:10331000000F2DD0204601F069F82068406900F0C8
:103320004000402820D100BF00BF2168143151E87F
:10333000001F21F040002168143141E80002002AFA
:10334000F3D100BFE06B50B17748E16B0865E06BEB
:10335000FEF7FAFD88B1E06B016D88470DE020466D
:10336000FFF76EFF09E009E02046FFF769FF04E080
:103370002046FFF765FF002060647DE7206B012891
:1033800078D105F01000002874D006F01000002855
:10339000FAD000BF002000902068006800902068EC
:1033A0004068009000BF00BF2068406900F0400006
:1033B000402860D1E06B006840681FFA80F8B8F1DF
:1033C000000F56D0A08D404553DDA4F82E80E06B51
:1033D000C069B0F5807F43D000BF00BF21680C31C9
:1033E00051E8001F21F4807021680C3141E800028F
:1033F000002AF3D100BF00BF00BF2168143151E89B
:10340000001F21F001002168143141E80002002A68
:10341000F3D100BF00BF00BF2168143151E8001F85
:1034200021F040002168143141E80002002AF3D164
:1034300000BF202084F842000020206300BF00BFAE
:1034400021680C3151E8001F21F0100021680C3177
:1034500041E80002002AF3D100BFE06BFEF71EFD39
:1034600002206063A08DE28D801A81B22046FFF7B2
:10347000E6FE01E742E0A08DE18D401A1FFA80F8D8
:10348000E08DD0B3B8F1000F37D000BF00BF216886
:103490000C3151E8001F21F4907021680C3141E893
:1034A0000002002AF3D100BF00BF00BF2168143121
:1034B00051E8001F21F001002168143141E80002A9
:1034C000002AF3D100BF202084F8420000202063AE
:1034D00000BF00BF21680C3151E8001F21F010002F
:1034E00021680C3141E80002002AF3D100BF02201C
:1034F000606341462046FFF7A2FEBDE605F080006E
:1035000030B106F0800018B1204601F069F9B3E649
:1035100005F0400030B106F0400018B1204600F040
:103520009BFFA9E600BFA7E6D943000810B50446F3
:103530000CB9012010BDA06900B100E000BF94F8F3
:10354000410028B9002084F84000204600F02AF805
:10355000242084F841002068C06820F400502168CD
:10356000C860204601F006F82068006920F4904009
:10357000216808612068406920F02A0021684861BC
:103580002068C06840F400502168C8600020606472
:10359000202084F8410084F842000020606300BFCE
:1035A000C8E7000010B586B00446142101A8FCF756
:1035B000ADFF1F492068884238D100BF002000902D
:1035C0001C48006840F010001A490860084600686E
:1035D00000F01000009000BF00BF00BF002000906E
:1035E00014481438006840F001001249143908608A
:1035F0000846006800F00100009000BF00BF4FF4D3
:10360000C0600190022002900020039003200490EB
:103610000720059001A90848FEF7BEFC01221146CB
:103620002520FFF73BF82520FFF724F806B010BD52
:1036300000100140443802400000024070B50446CA
:103640000D46164694F8420020280BD105B10EB95C
:10365000012070BD0020206332462946204601F03B
:103660009FF8F6E70220F4E770472DE9F84F04468B
:103670000E46174699464FF0000A94F8410020285C
:1036800050D106B117B90120BDE8F88F0020606461
:10369000212084F84100FEF791FD8246A784E7844B
:1036A000A068B0F5805F04D1206910B90025B0464C
:1036B00002E035464FF000081EE05346002280210C
:1036C0002046CDF8009001F0BBF820B1202084F80E
:1036D00041000320D8E745B9B8F80000C0F308005E
:1036E0002168486008F1020803E0287821684860F2
:1036F0006D1CE08C401EE084E08C0028DDD1534638
:10370000002240212046CDF8009001F099F820B128
:10371000202084F841000320B6E7202084F84100EF
:103720000020B1E70220AFE7704700BFFEE7014687
:1037300008684069C0F38020B0B16FF480600A6807
:10374000506100200863202081F83D00002081F8AE
:103750003E00086C40F00400086400BF002081F8BF
:103760003C0000BF012070470020FCE72DE9F84332
:103770000446884615469946DDE9086720680068D2
:1037800040F4807021680860334600224FF0011138
:103790002046009700F08DF860B12068006800F4C2
:1037A0008070B0F5807F02D14FF400702064032058
:1037B000BDE8F88308F0FE00216808613B46324608
:1037C0002149204600F0D4F808B10120F0E700BFFD
:1037D0000020009020684069009020688069009077
:1037E00000BF00BF3A463146204600F03EF950B1D6
:1037F000206C042805D12068006840F4007021681E
:1038000008600120D4E7B9F1010F03D1E8B22168C3
:10381000086117E0C5F30720216808613A46314680
:10382000204600F022F950B1206C042805D1206810
:10383000006840F40070216808600120B8E7E8B231
:10384000216808610020B3E70200010070B504465A
:103850000D46164625E02046FFF769FF08B1012016
:1038600070BD681CE8B1FEF7A9FC801BA84200D817
:10387000BDB920684069C0F3800090B90020206382
:10388000202084F83D00002084F83E00206C40F0A9
:103890002000206400BF002084F83C0000BF01200D
:1038A000DEE720684069C0F380000028D3D0002004
:1038B000D6E72DE9F04104460D4617461E46DDF8D1
:1038C000188038E0701CA8B3FEF778FCA0EB080065
:1038D000B04200D876BBC5F3074001280AD1206862
:1038E0004069A9B20840A9B2884201D101200BE089
:1038F000002009E020688069A9B20840A9B2884286
:1039000001D1012000E00020B84214D10020206342
:10391000202084F83D00002084F83E00206C40F018
:103920002000206400BF002084F83C0000BF01207C
:10393000BDE8F081FFE7C5F3074001280AD1206800
:103940004069A9B20840A9B2884201D101200BE028
:10395000002009E020688069A9B20840A9B2884225
:1039600001D1012000E00020B842ABD00020DFE709
:103970002DE9F04104460D4616461F4658E02068E2
:103980004069C0F38020E8B12068006840F400700E
:10399000216808606FF4806021684861002020631E
:1039A000202084F83D00002084F83E00206C40F088
:1039B0000400206400BF002084F83C0000BF012008
:1039C000BDE8F081701C90B3FEF7F8FBC01BB0425D
:1039D00000D866BBC5F3074001280AD120684069BA
:1039E000A9B20840A9B2884201D101200BE0002011
:1039F00009E020688069A9B20840A9B2884201D1D3
:103A0000012000E0002090B900202063202084F8ED
:103A10003D00002084F83E00206C40F0200020642F
:103A200000BF002084F83C0000BF0120C8E7FFE78A
:103A3000C5F3074001280AD120684069A9B20840AF
:103A4000A9B2884201D101200BE0002009E02068E2
:103A50008069A9B20840A9B2884201D1012000E0E2
:103A6000002000288BD00020AAE770B504460D4640
:103A7000164625E02046FFF75AFE08B1012070BD2A
:103A8000681CE8B1FEF79AFB801BA84200D8BDB9BC
:103A900020684069C0F3C01090B900202063202046
:103AA00084F83D00002084F83E00206C40F02000A7
:103AB000206400BF002084F83C0000BF0120DEE746
:103AC00020684069C0F3C0100028D3D00020D6E79A
:103AD00000B587B0142102A8FCF718FD00BF002034
:103AE00001902B48006840F004002949086008460E
:103AF000006800F00400019000BF00BF00BF00207C
:103B000001900846006840F08000086008460068A0
:103B100000F08000019000BF00BF00BF00200190B6
:103B20000846006840F0020008600846006800F09F
:103B30000200019000BF00BF00BF002001900846B6
:103B4000006840F0010008600846006800F00100CD
:103B5000019000BF00BF002208210E48FEF728FB9D
:103B6000082002900120039004900020059002A9F3
:103B70000848FEF711FA4FF47040029000200390BD
:103B80000120049002A90448FEF706FA07B000BD20
:103B900030380240000802400004024010B50C48D2
:103BA0000C4908600C4848604FF480410948816026
:103BB0000021C1604FF480410161002141618161B8
:103BC000C1610162FEF700FB08B1FEF764F910BDA8
:103BD00000540040BC000020801A06001CB50020E4
:103BE000009001900E480F49086040F2E7304860AD
:103BF00000210C4881605321C16080218161FFF761
:103C0000A3F908B1FEF747F900200090019069463A
:103C10000448FFF73FF908B1FEF73DF91CBD00006D
:103C2000001000401001002010B50B480B4908603F
:103C30004FF4E1304860002108488160C1600161B3
:103C40000C21416100218161C161FFF76FFC08B166
:103C5000FEF721F910BD00000010014058010020BE
:103C600000BFFEE700BFFEE700200CE0002106E0F9
:103C70000022064B03EBC0135A544A1CD1B28029D0
:103C8000F6DB421CD0B20828F0DB7047A001002010
:103C90002DE9F04304460D4616461F46284638E0F7
:103CA000224631E0002A2DDB7F2A2BDC002829DB8D
:103CB0003F2827DC4FEAE07C00EB5C7C4FEAEC0C11
:103CC000DFF8588008EBCC1C1CF802C003464FEA12
:103CD000E07800EB58784FEAE808A0EBC8094FF00D
:103CE000010808FA09F82CEA080C01464FEAE078C6
:103CF00000EB58784FEAE808DFF8209009EBC81885
:103D000008F802C0511C0AB2A1199142CADC411C38
:103D100008B2E9198142C3DCBDE8F083A0010020AC
:103D200010B54FF44870FEF723F9AE2000F04CFABE
:103D3000D52000F049FA802000F046FAA82000F0D3
:103D400043FA3F2000F040FAD32000F03DFA002073
:103D500000F03AFA402000F037FAA12000F034FADF
:103D6000C82000F031FADA2000F02EFA122000F01C
:103D70002BFA812000F028FACF2000F025FAD92074
:103D800000F022FAF12000F01FFADB2000F01CFA0C
:103D9000302000F019FAA42000F016FAA62000F056
:103DA00013FA8D2000F010FA142000F00DFAAF2065
:103DB00000F00AFAFFF758FF00F0F2F910BD10B555
:103DC0000246012000E050430B1EA1F10101FAD18F
:103DD00010BD70B505460C4645F0B00000F0F4F992
:103DE000102141EA141000F0EFF904F00F0000F088
:103DF000EBF970BDF8B506460F4614461D46082D72
:103E00000CD1A4F120000E4901EB00101023082270
:103E100039460090304600F097F80FE0062D0DD19E
:103E2000A4F1200000EB4000064901EB400008230C
:103E3000062239460090304600F086F8F8BD0000B2
:103E4000F8770008E87D00082DE9F04F2DED088B8C
:103E500081B005468B46B0EE408AF0EE608A164689
:103E60009A46129C9FED360B53EC102B51EC180B1D
:103E700003F0B6FA06D823462B2259462846FFF708
:103E8000B9FF0BE023462D2259462846FFF7B2FF23
:103E900051EC180B03F06AF841EC180B51EC180BBD
:103EA00003F024F98046404603F04DF941EC190B2C
:103EB00053EC182B03F024FB41EC180B51460A205D
:103EC000FFF77DFF0746384603F03DF941EC1B0B39
:103ED00053EC182B03F086F941EC1A0BB0EE4A0AAA
:103EE000F0EE6A0A00F034FDB0EE409AF0EE609A0F
:103EF00051EC190B03F0FAF88146B9FBF7F0804456
:103F0000291908B2334642465946009400F09AF8FF
:103F1000711C01FB045108B223462E225946FFF7BB
:103F200069FFB11C01FB045108B253464A46594689
:103F3000009400F087F801B0BDEC088BBDE8F08F6D
:103F400000000000000000002DE9FF4F80460E46F3
:103F50009146DDF834B0002500244A4631464046FB
:103F6000039BFFF795FE00BF5EE0002558E008EBDD
:103F70000500002852DB08EB05007F284EDC3046A8
:103F8000F11706EB5171C9100FB2F11706EB517121
:103F9000C910A6EBC10A002E05DA781E07B20AF195
:103FA00008000FFA80FA3819002817DB381907289B
:103FB00014DC3819224901EBC01008EB0501405C04
:103FC00004FB09511BF8011001FA0AF108433919E1
:103FD0001B4A02EBC11108EB050288543819401C3A
:103FE00000281BDB3819401C072817DC3819401C37
:103FF000134901EBC01008EB0501405C04FB0951BB
:104000001BF80110CAF10802114108433919491C73
:104010000B4A02EBC11108EB05028854681CC5B2BB
:104020004D45A4DB601CC4B20399481EC11700EBC8
:104030005171012202EBE101A14296DCBDE8FF8F44
:10404000A00100202DE9F0470646894617461D4687
:10405000DDF82080002417E0281B411E0A20FFF70E
:10406000AEFEB7FBF0F00A21B0FBF1F201FB12004B
:1040700000F1300A04FB086108B243465246494643
:10408000FFF7B8FE601CC4B2AC42E5DBBDE8F087C8
:104090002DE9FE4F07468A46144698460025AB4652
:1040A000002672E0605D00F0800058B94FF0010B0F
:1040B0002846691C8DB2205C8DF8040000208DF824
:1040C000050013E04FF0020B2846691C8DB2205CFE
:1040D0008DF80400605D00B95AE02846691C8DB275
:1040E000205C8DF8050000208DF80600BBF1010F63
:1040F0000BD19DF80420B91908B243465146FFF789
:1041000079FE06EB080086B23FE04FF000090EE0B2
:10411000C9EBC90101EB81011F4A881801A9FCF70D
:104120001DFA00B90EE009F101001FFA80F9C9EB90
:10413000C90101EB8101184A881818A1FCF70EFA91
:104140000028E5D100BFB8F1080F12D1C9EBC900B2
:1041500000EB800010490844C01CB919009008B257
:1041600010231A465146FFF7EFFE06F1100086B203
:104170000BE0B8F1060F08D1B91908B206233F22A7
:104180005146FFF737FEB01D86B2605D002889D129
:1041900000BFBDE8FE8F0000228000080000000084
:1041A00010B500240BE000212046FFF712FE054960
:1041B00001EBC410802100F019F8601CC4B2082C77
:1041C000F1DB10BDA001002001B584B06420012105
:1041D00004AA0B46CDE90021029000227821024872
:1041E000FEF7DAF805B000BDBC0000203EB504467D
:1041F0000D466420012340227821CDE9004502903C
:104200000148FEF7C9F83EBDBC000020704770476A
:1042100010B5FEF7B7F910BD00B593B0302107A86F
:10422000FCF774F9142102A8FCF770F900BF002014
:1042300001902448006840F08050224908600846F8
:10424000006800F08050019000BF00BF00BF002058
:1042500001901D48006840F480401B4908600846F2
:10426000006800F48040019000BF00BF012007906B
:104270000004089002200D9041050E9119210F9124
:104280004FF4A8711091022111910421129107A8F5
:10429000FEF796FB08B1FDF7FEFD0F20029002200D
:1042A0000390002004904FF4A05005904FF48050EC
:1042B0000690052102A8FEF743FA08B1FDF7EBFDD1
:1042C00013B000BD40380240007000400348006851
:1042D00040F47000014908607047000088ED00E07C
:1042E00010B50248FEF7DDFE10BD000010010020F1
:1042F00010B502682D4B98420ED0B0F1804F0BD014
:104300002B4B984208D02B4B984205D02A4B984211
:1043100002D02A4B984203D122F070024B681A4314
:10432000224B984220D0B0F1804F1DD0204B9842B4
:104330001AD0204B984217D01F4B984214D01F4BD5
:10434000984211D01E4B98420ED01E4B98420BD073
:104350001D4B984208D01D4B984205D01C4B9842EB
:1043600002D01C4B984203D122F44072CB681A430E
:1043700022F080034C6943EA040202608B68C36246
:104380000B688362094B984202D00C4B984201D1D2
:104390000B69036301234361036903F001031BB14C
:1043A000036923F00103036110BD00000000014018
:1043B0000004004000080040000C004000040140E0
:1043C0000040014000440140004801400018004006
:1043D000001C00400020004070B50546AC6B00207A
:1043E000E085E0842046FEF72BFF70BD00BF00BFD4
:1043F00002680C3252E8002F22F4907102680C32ED
:1044000042E80013002BF3D100BF00BF00BF0268D9
:10441000143252E8002F22F001010268143242E8FF
:104420000013002BF3D100BF016B01290ED100BF97
:1044300000BF02680C3252E8002F22F0100102681F
:104440000C3242E80013002BF3D100BF202180F88A
:10445000421000210163704710B504462068C0680F
:1044600020F040002168C860202084F841002046E8
:10447000FFF75AF9002010BDF8B5044694F8420041
:10448000222875D1A068B0F5805F0CD1206950B9A1
:104490000025A66A20684068C0F308003080A06A42
:1044A000801CA06215E0A56A0026A068B0F5805FB8
:1044B00003D0A06828B9206918B92068406828701E
:1044C00004E02068406800F07F002870A06A401C6B
:1044D000A062E08D401E80B2E085002846D12068B1
:1044E000C06820F020002168C8602068C06820F4FF
:1044F00080702168C8602068406920F00100216850
:104500004861202084F8420000206063206B01286D
:1045100026D10020206300BF00BF21680C3151E884
:10452000001F21F0100021680C3141E80002002A30
:10453000F3D100BF2068006800F0100010280AD1F5
:1045400000BF00200090206800680090206840684C
:10455000009000BF00BFA18D2046FEF770FE02E074
:104560002046FFF781F80020F8BD01E00020FBE7BE
:104570000220F9E72DE9F84F04462068006920F48D
:104580004050E1680843216808612169A068084338
:1045900061690843E169084300902068C06849F2F6
:1045A0000C618843009908432168C860206840690D
:1045B00020F44070A1690843216848617649206869
:1045C000884203D075492068884203D1FEF790F9EC
:1045D000814602E0FEF77CF98146E069B0F5004FC4
:1045E0006CD102206168A0FB015003461920A9FB91
:1045F000007001462A463846FBF78CFE6421B0FB6A
:10460000F1F04FEA001A02206168A0FB01510B464D
:104610001920A9FB00712A463846FBF77BFE83462A
:1046200002206168A0FB015003461920A9FB00711C
:104630002A463846FBF76EFE6421B0FBF1F000EB32
:10464000C00101EB0010ABEB8000322101EBC00098
:104650006421B0FBF1F000F0F8000AEB400A022000
:104660006168A0FB015003461920A9FB00700146B8
:104670002A463846FBF74EFE834602206168A0FBBF
:10468000015003461920A9FB00712A463846FBF762
:1046900041FE6421B0FBF1F000EBC00101EB001022
:1046A000ABEB8000322101EBC0006421B0FBF1F0E4
:1046B00000F007005044216888606AE004206168C7
:1046C000A0FB015003461920A9FB007001462A46B1
:1046D0003846FBF71FFE824604206168A0FB0150AC
:1046E00003461920A9FB007001462A463846FBF70D
:1046F00011FE6421B0FBF1F000EBC00101EB0010F2
:10470000AAEB8000322101EB00106421B0FBF1F034
:1047100000F0F00A04206168A0FB01700346192034
:10472000A9FB00513A462846FBF7F4FD6421B0FB93
:10473000F1F00AEB001A04206168A0FB01510B465E
:104740001920A9FB00712A463846FBF7E3FD834692
:1047500004206168A0FB015003461920A9FB0070EA
:1047600001462A463846FBF7D5FD6421B0FBF1F03F
:1047700000EBC00101EB0010ABEB8000322101EB3C
:1047800000106421B0FBF1F000F00F0050442168EC
:104790008860BDE8F88F000000100140001401405F
:1047A00010B5034699629A85DA8500205864222064
:1047B00083F84200186928B11868C06840F4807016
:1047C0001C68E0601868406940F001001C68606186
:1047D0001868C06840F020001C68E060002010BD30
:1047E000014691F84100212828D18868B0F5805F02
:1047F0000BD1086948B90A6A1088C0F308000B6831
:104800005860086A801C086205E00B6A581C086240
:1048100018780B685860C88C401E80B2C88458B99C
:104820000868C06820F080000B68D8600868C0681D
:1048300040F040000B68D860002070470220FCE781
:104840002DE9F84304460D4617469846089E31E088
:10485000701C70B3FDF7B2FCA0EB0800B04200D8AA
:1048600016B90320BDE8F8832068C06800F0040092
:10487000F8B1802D1ED0402D1CD020680068C0F3F8
:10488000C000B0B100BF0020009020680068009018
:1048900020684068009000BF00BF2046FFF7A6FDDB
:1048A0000820606400BF002084F8400000BF0120A1
:1048B000D8E7FFE7206800682840A84201D101201E
:1048C00000E00020B842C3D00020CBE710B5FDF7D0
:1048D000CBFA0248FEF7B6FC10BD000058010020DC
:1048E00000BFFEE703B401984100009850EAC120E0
:1048F00018BF04204A0D18BF40F0010040F2FF72BB
:10490000B2EB515F08BF40F00200012808BF05204C
:1049100002B0704702480068C0F3022070470000F0
:104920000CED00E010B5002804DB0A07130E054A61
:10493000135406E00A07140E034A00F00F031B1F6E
:10494000D45410BD00E400E018ED00E000000000C9
:1049500010B52DED020B2DED088B84B09DED0C0BE9
:1049600051EC100B02F072FD41EC180B9DED0C0B9D
:1049700053EC182B51EC100B02F0CEFD41EC190B4F
:104980000D989FED290B10F0004F53EC102B51ECBC
:10499000190B9FED21AB9FED22BB0ED002F0E6FB81
:1049A0000ED953EC1B2B51EC190B02F019FD1CD244
:1049B00014E000BF41EC180B17E002F0D7FB06D261
:1049C00053EC1A2B51EC180B02F0A6FDF2E753EC56
:1049D0001B2B51EC190B02F003FD06D853EC1A2BDC
:1049E00051EC180B02F0CEFAE4E78DED028B9DED51
:1049F0000C0B18EE901A10EE900A8DED000B61F37F
:104A00001E0003909DED020B04B0BDEC088B02B0BC
:104A100010BD000000000000000000000000F03F9A
:104A2000000000000000E03F000000000000E0BFC8
:104A300030380A2801D201207047002070472DE944
:104A4000F04704460D4616469A46DDE90989089F57
:104A500001EE106A00EE905A00EE104A01F082FF5B
:104A6000BDE8F0872DE9F04704460D4616469A4604
:104A7000DDE90989089F01EE106A00EE905A00EE08
:104A8000104A01F0CBFFBDE8F08770B504460D4633
:104A900000F018FA00F002F870BD00001CB500200C
:104AA000044914220346CDE90010034800F052FBEC
:104AB0001CBD00008B4A0008680600200FB410B52A
:104AC000C2B045A801904FF4807102A8019B449A9E
:104AD000FBF798FC044600200190A2B24FF47A73D1
:104AE00002A90448FEF7C1FD204642B010BC5DF8A3
:104AF00014FB000058010020002140F8801F491ECF
:104B0000416000218160803870470246D2F88800F9
:104B1000002813DDD2F88000105C087052F8803F46
:104B2000581CC31700EB5363DB11A0EBC3131360D6
:104B30009068401E9060803A012070470020FCE79A
:104B40000246D2F88800802814DA52F8843F581CB4
:104B5000C31700EB5363DB11A0EBC313136008789A
:104B600052F88439D054D2F88800401CC2F888002A
:104B7000012070470020FCE710B50648FFF7BCFF96
:104B80000548064988664FF480720549034801F0DC
:104B900071F810BDE80600204D670008740700207A
:104BA000E007002010B5012202490348FEF746FD48
:104BB00010BD0000200000205801002070B58C4876
:104BC0000468002510E1E07E4009002809DDA08985
:104BD000401CA081A0894FF6FF71884201DB208B29
:104BE000A081E07E400920B1012822D002281FD1F7
:104BF000CEE00120A8407F490968084098B1002014
:104C0000A081E08100BFE07E20F01E00E076A06879
:104C100010B12046A168884700BFE07E20F0E00088
:104C20002030E07604E0E07E20F01E001630E076D2
:104C3000D6E00120A8406F490968084000285FD0ED
:104C4000E08900281DDDA089218A884218DD00BF87
:104C5000E089032801DAE08900E00320E17E60F3C7
:104C60004401E176A06810B12046A168884700BFE2
:104C7000E07E20F0E0002030E0760020A081E0819E
:104C800085E0A089218B884210DBE07EC0F34300E1
:104C900008287CD000BFE07E20F01E001030E076B7
:104CA000A06810B12046A168884770E0A089E18A19
:104CB000884210DBE07EC0F34300062867D000BFC7
:104CC000E07E20F01E000C30E076A06810B1204697
:104CD000A16888475BE0A089A18A884257DBE07E13
:104CE000C0F34300042852D000BFE07E20F01E0035
:104CF0000830E076A06810B12046A168884746E0F9
:104D0000A089218B884210DB00BFE07E20F01E00CE
:104D10001230E076A06810B12046A168884700BF35
:104D2000E07E20F0E000E07631E0A089E18A884270
:104D300010DB00BFE07E20F01E000E30E076A068A1
:104D400010B12046A168884700BFE07E20F0E00057
:104D5000E0761CE0A089A18A884210DB00BFE07EDB
:104D600020F01E000A30E076A06810B12046A1684D
:104D7000884700BFE07E20F0E000E07607E0E07EBC
:104D800020F0E0004030E076E089401CE08127E040
:104D90000120A84017490968084038B1E07E20F09A
:104DA000E0002030E0760020A08118E0A089218A70
:104DB000884214DD00BFE089032801DAE08900E0C1
:104DC0000320E17E60F34401E176A06810B1204643
:104DD000A168884700BFE07E20F0E000E07600BFD9
:104DE00000BF2468681CC5B2002C7FF4ECAE70BD17
:104DF000340000203C00002070B500260C480468F8
:104E00000C480078401EC5B207E02046616888471C
:104E1000A84006432468681EC5B214B16068002823
:104E2000F3D1F0430449096848400449086070BD63
:104E30003400002040000020380000203C0000200A
:104E400001461D48026819B11C480078202802D983
:104E50004FF0FF30704705E08A4202D14FF0FF303B
:104E6000F8E71268002AF7D1134800680860C87E86
:104E700020F0E000C876C87E20F01E001630C8760C
:104E800000208881C8810A2008820B480160C87E02
:104E900000F00100094B1B789840094B1B68184330
:104EA000074B186005480078401C044B18701846E2
:104EB000007840B2CEE7000034000020400000201F
:104EC0003800002010B5FFF797FFFFF777FE10BD01
:104ED0009FED060A80ED040A9FED040A80ED050AA5
:104EE0009FED020A80ED060A7047000000000000F6
:104EF000022180F82D107047012180F82C10704796
:104F000080ED000AC0ED010A80ED021A704780EDC5
:104F1000090AC0ED0A0A704780ED070AC0ED080AC9
:104F2000704780ED030A7047014908684968704777
:104F3000180000209FED060A80ED040A9FED040A88
:104F400080ED050A9FED020A80ED060A7047000019
:104F500000000000012180F82410704780ED000A55
:104F6000C0ED010A80ED021A704780ED070AC0ED1E
:104F7000080A704780ED030A704770B504460D4675
:104F800001F0C0FF00F002F870BD00001CB5002069
:104F900004494FF4FA720346CDE90010024800F0CC
:104FA000D9F81CBD7B4F00088006002070B5044670
:104FB0000D4601F08FFD00F001F870BD1CB500201A
:104FC000044914220346CDE90010034800F0C2F85A
:104FD0001CBD0000AD4F0008B00600202DED028B77
:104FE00082B0FDF7DBFAFFF717F9FEF771FDFEF768
:104FF000D5FDFEF719FEFEF7F1FD002000F012F9D5
:10500000022000F00FF9FEF78BFE01F031FFFFF7F1
:10501000B3FD00F059F801F06DFD254800F08EF861
:10502000FFF73CFDFFF7B2FF00F050F9FFF7C6FFB6
:105030002048FDF7E1FFFFF7B5FD37E0FFF774FF0C
:105040001D4A03C21C48D0E900101C4B0CCB891A26
:1050500060EB03004FF4FA73C91A70F1000023D318
:10506000174890ED000ADFED170A30EE200A80EDB8
:10507000000A90ED000AFCF7E1FA10EE104A204613
:1050800002F034FB41EC180B082004230022B0EEA0
:10509000480AF0EE680A114600901046FEF7D4FE6A
:1050A000054903C9054A03C200F08AF8C6E70000B3
:1050B000294F0008100100200800002010000020E7
:1050C00000000020CDCCCC3D10B59FED131ADFEDD4
:1050D000130A9FED130A1348FFF712FF9FED120A00
:1050E0001048FFF71EFF0F48FFF706FFDFED0F0A1E
:1050F0009FED0F0A0B48FFF70FFF0A48FFF7F8FE76
:10510000DFED0C0A9FED0C0A0648FFF700FF05488B
:10511000FFF7DEFE10BD00009A99993F1F852B3FD7
:105120001F856B3EA0050020000000000000FAC3B0
:105130000000FA4300007AC300007A43014611B927
:105140004FF0FF307047024801600020FAE700008E
:10515000480000202DE9F047044616461F46DDE9C9
:1051600008892CB1B8F1000F02D01348006818B9B3
:105170004FF0FF30BDE8F087204600F0B7F80E484A
:105180000068804780197941C4E90201C4F81080A1
:10519000C4F81490094D00E02D68286838B12868DB
:1051A000D0E90230D4E90212591A9041F4D32868A8
:1051B00020602C600020DDE7480000204400002033
:1051C00070B51648006810B94FF0FF3070BD134835
:1051D0000068804704460D460BE0114806681049F8
:1051E00030680860306918B13046D6E9042190472C
:1051F00000BF0B48006838B109480068D0E90210C8
:10520000611A75EB0000E8D20548006820B1044837
:1052100000688068001BD9E70020D7E7480000201D
:105220004400002010B504460C4951F824104A00EF
:105230000B4951F82400002100F036F8094951F8D3
:1052400024200749083951F82400002100F02CF8E7
:10525000012103480830015510BD000020830008DB
:10526000B00000203083000810B501460023002262
:1052700007E00B4850F8210030F8120000B15B1C29
:10528000521C084850F821009042F2D8642058433C
:10529000044C54F82140B0FBF4F0C0B210BD000043
:1052A000B00000202083000830B5034601E003F879
:1052B000011B141EA2F10102F9D130BD70B50446E4
:1052C0000D46FEF76DFF00F001F870BD1CB5002023
:1052D00004491E220346CDE900100348FFF73AFFB8
:1052E0001CBD0000BD52000898060020014607487A
:1052F00006E002688A4202D10A68026003E00068A0
:105300000268002AF5D100BF704700004400002069
:105310000146002009E0074A52F820201AB9054A40
:1053200042F820107047421C10B20528F3DB00BF82
:10533000F8E70000C806002010B504460121204609
:1053400000F073F810BD000010B5044622689168A3
:105350002069FBF703F960B994F8600020F00100C0
:10536000401C84F8600008480168204601F0E2FA19
:1053700004E00548416B204601F0DCFA0020A081E2
:105380000021E18110BD00004C0000200246087899
:1053900048B1487800F00F00082804D00878136856
:1053A0001B78184050B192F8600000F0010018B965
:1053B0004878C0F3001008B1002070474FF0FF306C
:1053C000FBE7000010B500F0E1FA044624B1034801
:1053D000816B204601F0AEFA10BD00004C000020A9
:1053E00070B50446A189E089081A05B205E02021BC
:1053F000204601F0B9F9681E05B2002DF7DC217BCB
:10540000204600F07FF870BD10B500F0BFFA0446EA
:1054100014B1204600F006FD10BD10B504464FF053
:10542000FF31204600F001F810BD2DE9F04104469F
:105430000D46681C08B9012000E000200746E089FD
:1054400008B9012D05D0E089A189884203D1681CE3
:1054500008B9BDE8F081E089A189884210D1012D09
:105460000ED1E089401EE081A089401EA08100216C
:10547000A289206981540121204600F043F83FE0D1
:1054800038460AE0E18901442269525CE18901441D
:10549000491E23695A54411C08B2A289E189511A54
:1054A0008142EFDCA089401EA08137B9E089401E0F
:1054B000E0810821204601F057F90021A2892069E6
:1054C0008154E08906B206E02069815D204601F042
:1054D0004BF9701C06B2A089B042F5DC20212046B1
:1054E00001F042F9A189E089081A401C06B205E0E2
:1054F0000821204601F038F9701E06B2002EF7DCB4
:1055000000BFA6E770B505460C4603E004A1284697
:1055100001F010FA201EA4F10101CCB2F6D170BD49
:105520000820080010B504464FF0FF31204600F077
:1055300003FB10BD10B50446204600F005F801211C
:10554000204601F07DF910BD70B50446A08900B970
:1055500070BD0021A2892069815494F8600000F098
:10556000010010B3204600F048FB204600F090FDFB
:105570000021E181A181E08E00B9E9E70DA120467B
:1055800001F0D8F900232046A26D616900F061FEA8
:10559000054625B12946204600F004FE04E00648F1
:1055A0008169204601F0C6F902E02046FFF7CCFEF3
:1055B00000BFCDE70D0A00004C00002010B50246E8
:1055C000114600200B78302B07D14B78782B02D076
:1055D0004B78582B01D103200EE00B78302B07D1EC
:1055E0004B78622B02D04B78422B01D1012003E093
:1055F0000B78302B00D1022006E00B782E2B03D144
:105600004B780BB1042003E011F8014B002CF4D1CE
:1056100000BF10BD0246511C00200B785C2B1AD134
:105620004B786E2B0ED004DC302B0FD0622B0FD1B9
:1056300004E0722B04D0742B0AD105E0082009E0A5
:105640000D2007E00A2005E0092003E0002001E02A
:10565000487800BF00E00878704700002DE9F84F57
:1056600005464FF0000A4FF00A0B2C460020009030
:10567000012600279FED330A10EE109A8046287805
:105680002D2800D1B61E711C09B9012100E00021AE
:105690004819FFF793FF8246BAF1010F0FD0BAF114
:1056A000020F07D0BAF1030F0ED14FF0100B0220FA
:1056B00000900AE04FF0080B0120009005E04FF049
:1056C000020B0220009000E000BF00BF00982918E4
:1056D000701C08B9012000E000200C1811E02078AF
:1056E0002E2803D14FF00108641C0AE0207800F056
:1056F000F2F807FB0B0708EB88004FEA4008641C30
:1057000000BF20780028EAD1BAF1040F17D1B8F110
:10571000000F14D000EE107AB8EE401A00EE108A96
:10572000B8EE400AC1EE000A00EE106AB8EEC00AF8
:1057300020EE800A10EE109A4846BDE8F88F07FB6D
:1057400006F0FAE70000000070B505460C46207828
:10575000272805D1607818B12046FFF75BFF70BDA0
:1057600020782D2805D02078302806DB20783928AD
:1057700003DC2046FFF772FFF1E72078242806D1EA
:10578000607820B12146284600F02EF8E7E720781F
:1057900018B1204600F003F8E1E70020DFE770B51C
:1057A0000446254600262078222802D1601C0446A3
:1057B000054613E028785C2805D1681EFFF72AFF0C
:1057C000A0556D1C07E02878222802D10020A055A2
:1057D00001E02878A0556D1C701C86B2287800283E
:1057E000E8D1A055204670BD70B504460D46002393
:1057F000691C2046A26D00F02CFD064626B13146FC
:10580000204600F0DDF870BD0020FCE72DE9F043F4
:105810008BB081460C4615461F46202103A8FAF797
:1058200075FEA07800F00F01681E814203DDA078AC
:1058300000F00F0000E0681E8046002609E0701CA2
:1058400057F820104846FFF77FFF03A941F82600CC
:10585000761C681EB042F2DCB8F1080F38D2DFE8DF
:1058600008F004090D12171C232CA06880470BB008
:10587000BDE8F0830398A1688847F8E7DDE90301F4
:10588000A2689047F3E703A807C8A3689847EEE724
:1058900003A80FC8A668B047E9E70798009003A8D7
:1058A0000FC8A668B047E2E7DDE90701CDE90001CE
:1058B00003A80FC8A668B047D9E7DDE90712099821
:1058C000CDE90012029003A80FC8A668B047CEE742
:1058D0004FF0FF30CBE70146302905DB392903DCE7
:1058E000A1F13000C0B27047612905DB662903DCF5
:1058F000A1F15700C0B2F6E7412905DB462903DCD8
:10590000A1F13700C0B2EEE70020ECE7014648788D
:1059100000F00F00012801DCC8687047487800F0EB
:105920000F00072801DCC868F7E7487800F00F008F
:10593000082801DCC868F0E7C868EEE710B504463F
:10594000002004E03021104A1154411CC8B209283B
:10595000F8DB607800F00F00012801DC606810BD02
:10596000607800F00F00072801DC6068F7E76078D6
:1059700000F00F00082801DC6068F0E70249606869
:1059800000F0AFFE0048EAE7DC060020002111E04D
:105990000A4850F8210058B1084850F8210090F802
:1059A0006000C0F3400018B1044850F8210070476F
:1059B000481C01B20529EBDB0020F8E7C8060020EF
:1059C00070B506460C460025607800F00F00801E7A
:1059D00006281BD2DFE800F003060A0D0E10A068AF
:1059E000056814E0A068B0F9005010E0A0680578E0
:1059F0000DE000BFA5680AE0A068406818B1A26881
:105A000003CA884700E00020054600E000BF00BF51
:105A1000284670BD2DE9F04704468846B8F1000FCE
:105A200001D1BDE8F08718274FF00009208F00F45E
:105A30007F4018B100276FF0FF090EE0A06B00F463
:105A40007F0018B10827DFF8BC9006E0A06B00F0DB
:105A50007F4010B110274FF07F49A66D00253DE033
:105A600006EB0510407800F00F00092834D106EB52
:105A700005112046FFF78AFC70BB06EB0510406855
:105A800000EA0900A16B884226D106EB05104068A8
:105A9000FF21B940084008FA07F188421CD108FAF2
:105AA00007F1A06B0843A0634FF0000847B106EB75
:105AB00005104068A7F10801FF228A40104058B93C
:105AC00006EB0510806820B106EB051081682046C2
:105AD00088470021A16305E0681C05B25C20005BDB
